{
  "_format": "hh-sol-artifact-1",
  "contractName": "Ai",
  "sourceName": "contracts/Ai.sol",
  "abi": [
    {
      "inputs": [],
      "stateMutability": "nonpayable",
      "type": "constructor"
    },
    {
      "anonymous": false,
      "inputs": [
        {
          "indexed": true,
          "internalType": "address",
          "name": "owner",
          "type": "address"
        },
        {
          "indexed": true,
          "internalType": "address",
          "name": "spender",
          "type": "address"
        },
        {
          "indexed": false,
          "internalType": "uint256",
          "name": "value",
          "type": "uint256"
        }
      ],
      "name": "Approval",
      "type": "event"
    },
    {
      "anonymous": false,
      "inputs": [
        {
          "indexed": true,
          "internalType": "address",
          "name": "delegator",
          "type": "address"
        },
        {
          "indexed": true,
          "internalType": "address",
          "name": "fromDelegate",
          "type": "address"
        },
        {
          "indexed": true,
          "internalType": "address",
          "name": "toDelegate",
          "type": "address"
        }
      ],
      "name": "DelegateChanged",
      "type": "event"
    },
    {
      "anonymous": false,
      "inputs": [
        {
          "indexed": true,
          "internalType": "address",
          "name": "delegate",
          "type": "address"
        },
        {
          "indexed": false,
          "internalType": "uint256",
          "name": "previousBalance",
          "type": "uint256"
        },
        {
          "indexed": false,
          "internalType": "uint256",
          "name": "newBalance",
          "type": "uint256"
        }
      ],
      "name": "DelegateVotesChanged",
      "type": "event"
    },
    {
      "anonymous": false,
      "inputs": [
        {
          "indexed": true,
          "internalType": "address",
          "name": "previousOwner",
          "type": "address"
        },
        {
          "indexed": true,
          "internalType": "address",
          "name": "newOwner",
          "type": "address"
        }
      ],
      "name": "OwnershipTransferred",
      "type": "event"
    },
    {
      "anonymous": false,
      "inputs": [
        {
          "indexed": true,
          "internalType": "address",
          "name": "from",
          "type": "address"
        },
        {
          "indexed": true,
          "internalType": "address",
          "name": "to",
          "type": "address"
        },
        {
          "indexed": false,
          "internalType": "uint256",
          "name": "value",
          "type": "uint256"
        }
      ],
      "name": "Transfer",
      "type": "event"
    },
    {
      "inputs": [],
      "name": "DOMAIN_SEPARATOR",
      "outputs": [
        {
          "internalType": "bytes32",
          "name": "",
          "type": "bytes32"
        }
      ],
      "stateMutability": "view",
      "type": "function"
    },
    {
      "inputs": [
        {
          "internalType": "address",
          "name": "owner",
          "type": "address"
        },
        {
          "internalType": "address",
          "name": "spender",
          "type": "address"
        }
      ],
      "name": "allowance",
      "outputs": [
        {
          "internalType": "uint256",
          "name": "",
          "type": "uint256"
        }
      ],
      "stateMutability": "view",
      "type": "function"
    },
    {
      "inputs": [
        {
          "internalType": "address",
          "name": "spender",
          "type": "address"
        },
        {
          "internalType": "uint256",
          "name": "amount",
          "type": "uint256"
        }
      ],
      "name": "approve",
      "outputs": [
        {
          "internalType": "bool",
          "name": "",
          "type": "bool"
        }
      ],
      "stateMutability": "nonpayable",
      "type": "function"
    },
    {
      "inputs": [
        {
          "internalType": "address",
          "name": "",
          "type": "address"
        }
      ],
      "name": "balance",
      "outputs": [
        {
          "internalType": "uint256",
          "name": "",
          "type": "uint256"
        }
      ],
      "stateMutability": "view",
      "type": "function"
    },
    {
      "inputs": [
        {
          "internalType": "address",
          "name": "account",
          "type": "address"
        }
      ],
      "name": "balanceOf",
      "outputs": [
        {
          "internalType": "uint256",
          "name": "",
          "type": "uint256"
        }
      ],
      "stateMutability": "view",
      "type": "function"
    },
    {
      "inputs": [
        {
          "internalType": "address",
          "name": "from",
          "type": "address"
        },
        {
          "internalType": "uint256",
          "name": "amount",
          "type": "uint256"
        }
      ],
      "name": "burn",
      "outputs": [],
      "stateMutability": "nonpayable",
      "type": "function"
    },
    {
      "inputs": [
        {
          "internalType": "uint256",
          "name": "amount",
          "type": "uint256"
        }
      ],
      "name": "burnAI",
      "outputs": [],
      "stateMutability": "nonpayable",
      "type": "function"
    },
    {
      "inputs": [
        {
          "internalType": "address",
          "name": "account",
          "type": "address"
        },
        {
          "internalType": "uint32",
          "name": "pos",
          "type": "uint32"
        }
      ],
      "name": "checkpoints",
      "outputs": [
        {
          "components": [
            {
              "internalType": "uint32",
              "name": "fromBlock",
              "type": "uint32"
            },
            {
              "internalType": "uint224",
              "name": "votes",
              "type": "uint224"
            }
          ],
          "internalType": "struct ERC20Votes.Checkpoint",
          "name": "",
          "type": "tuple"
        }
      ],
      "stateMutability": "view",
      "type": "function"
    },
    {
      "inputs": [],
      "name": "decimals",
      "outputs": [
        {
          "internalType": "uint8",
          "name": "",
          "type": "uint8"
        }
      ],
      "stateMutability": "view",
      "type": "function"
    },
    {
      "inputs": [
        {
          "internalType": "address",
          "name": "spender",
          "type": "address"
        },
        {
          "internalType": "uint256",
          "name": "subtractedValue",
          "type": "uint256"
        }
      ],
      "name": "decreaseAllowance",
      "outputs": [
        {
          "internalType": "bool",
          "name": "",
          "type": "bool"
        }
      ],
      "stateMutability": "nonpayable",
      "type": "function"
    },
    {
      "inputs": [
        {
          "internalType": "address",
          "name": "delegatee",
          "type": "address"
        }
      ],
      "name": "delegate",
      "outputs": [],
      "stateMutability": "nonpayable",
      "type": "function"
    },
    {
      "inputs": [
        {
          "internalType": "address",
          "name": "delegatee",
          "type": "address"
        },
        {
          "internalType": "uint256",
          "name": "nonce",
          "type": "uint256"
        },
        {
          "internalType": "uint256",
          "name": "expiry",
          "type": "uint256"
        },
        {
          "internalType": "uint8",
          "name": "v",
          "type": "uint8"
        },
        {
          "internalType": "bytes32",
          "name": "r",
          "type": "bytes32"
        },
        {
          "internalType": "bytes32",
          "name": "s",
          "type": "bytes32"
        }
      ],
      "name": "delegateBySig",
      "outputs": [],
      "stateMutability": "nonpayable",
      "type": "function"
    },
    {
      "inputs": [
        {
          "internalType": "address",
          "name": "account",
          "type": "address"
        }
      ],
      "name": "delegates",
      "outputs": [
        {
          "internalType": "address",
          "name": "",
          "type": "address"
        }
      ],
      "stateMutability": "view",
      "type": "function"
    },
    {
      "inputs": [],
      "name": "deposit",
      "outputs": [],
      "stateMutability": "payable",
      "type": "function"
    },
    {
      "inputs": [
        {
          "internalType": "address",
          "name": "addr",
          "type": "address"
        }
      ],
      "name": "getETHBalance",
      "outputs": [
        {
          "internalType": "uint256",
          "name": "",
          "type": "uint256"
        }
      ],
      "stateMutability": "view",
      "type": "function"
    },
    {
      "inputs": [
        {
          "internalType": "uint256",
          "name": "blockNumber",
          "type": "uint256"
        }
      ],
      "name": "getPastTotalSupply",
      "outputs": [
        {
          "internalType": "uint256",
          "name": "",
          "type": "uint256"
        }
      ],
      "stateMutability": "view",
      "type": "function"
    },
    {
      "inputs": [
        {
          "internalType": "address",
          "name": "account",
          "type": "address"
        },
        {
          "internalType": "uint256",
          "name": "blockNumber",
          "type": "uint256"
        }
      ],
      "name": "getPastVotes",
      "outputs": [
        {
          "internalType": "uint256",
          "name": "",
          "type": "uint256"
        }
      ],
      "stateMutability": "view",
      "type": "function"
    },
    {
      "inputs": [
        {
          "internalType": "address",
          "name": "account",
          "type": "address"
        }
      ],
      "name": "getVotes",
      "outputs": [
        {
          "internalType": "uint256",
          "name": "",
          "type": "uint256"
        }
      ],
      "stateMutability": "view",
      "type": "function"
    },
    {
      "inputs": [
        {
          "internalType": "address",
          "name": "spender",
          "type": "address"
        },
        {
          "internalType": "uint256",
          "name": "addedValue",
          "type": "uint256"
        }
      ],
      "name": "increaseAllowance",
      "outputs": [
        {
          "internalType": "bool",
          "name": "",
          "type": "bool"
        }
      ],
      "stateMutability": "nonpayable",
      "type": "function"
    },
    {
      "inputs": [
        {
          "internalType": "address",
          "name": "to",
          "type": "address"
        },
        {
          "internalType": "uint256",
          "name": "amount",
          "type": "uint256"
        }
      ],
      "name": "mint",
      "outputs": [],
      "stateMutability": "nonpayable",
      "type": "function"
    },
    {
      "inputs": [],
      "name": "name",
      "outputs": [
        {
          "internalType": "string",
          "name": "",
          "type": "string"
        }
      ],
      "stateMutability": "view",
      "type": "function"
    },
    {
      "inputs": [
        {
          "internalType": "address",
          "name": "owner",
          "type": "address"
        }
      ],
      "name": "nonces",
      "outputs": [
        {
          "internalType": "uint256",
          "name": "",
          "type": "uint256"
        }
      ],
      "stateMutability": "view",
      "type": "function"
    },
    {
      "inputs": [
        {
          "internalType": "address",
          "name": "account",
          "type": "address"
        }
      ],
      "name": "numCheckpoints",
      "outputs": [
        {
          "internalType": "uint32",
          "name": "",
          "type": "uint32"
        }
      ],
      "stateMutability": "view",
      "type": "function"
    },
    {
      "inputs": [],
      "name": "owner",
      "outputs": [
        {
          "internalType": "address",
          "name": "",
          "type": "address"
        }
      ],
      "stateMutability": "view",
      "type": "function"
    },
    {
      "inputs": [
        {
          "internalType": "address",
          "name": "owner",
          "type": "address"
        },
        {
          "internalType": "address",
          "name": "spender",
          "type": "address"
        },
        {
          "internalType": "uint256",
          "name": "value",
          "type": "uint256"
        },
        {
          "internalType": "uint256",
          "name": "deadline",
          "type": "uint256"
        },
        {
          "internalType": "uint8",
          "name": "v",
          "type": "uint8"
        },
        {
          "internalType": "bytes32",
          "name": "r",
          "type": "bytes32"
        },
        {
          "internalType": "bytes32",
          "name": "s",
          "type": "bytes32"
        }
      ],
      "name": "permit",
      "outputs": [],
      "stateMutability": "nonpayable",
      "type": "function"
    },
    {
      "inputs": [],
      "name": "renounceOwnership",
      "outputs": [],
      "stateMutability": "nonpayable",
      "type": "function"
    },
    {
      "inputs": [],
      "name": "symbol",
      "outputs": [
        {
          "internalType": "string",
          "name": "",
          "type": "string"
        }
      ],
      "stateMutability": "view",
      "type": "function"
    },
    {
      "inputs": [],
      "name": "totalSupply",
      "outputs": [
        {
          "internalType": "uint256",
          "name": "",
          "type": "uint256"
        }
      ],
      "stateMutability": "view",
      "type": "function"
    },
    {
      "inputs": [
        {
          "internalType": "address",
          "name": "to",
          "type": "address"
        },
        {
          "internalType": "uint256",
          "name": "amount",
          "type": "uint256"
        }
      ],
      "name": "transfer",
      "outputs": [
        {
          "internalType": "bool",
          "name": "",
          "type": "bool"
        }
      ],
      "stateMutability": "nonpayable",
      "type": "function"
    },
    {
      "inputs": [
        {
          "internalType": "address",
          "name": "from",
          "type": "address"
        },
        {
          "internalType": "address",
          "name": "to",
          "type": "address"
        },
        {
          "internalType": "uint256",
          "name": "amount",
          "type": "uint256"
        }
      ],
      "name": "transferFrom",
      "outputs": [
        {
          "internalType": "bool",
          "name": "",
          "type": "bool"
        }
      ],
      "stateMutability": "nonpayable",
      "type": "function"
    },
    {
      "inputs": [
        {
          "internalType": "address",
          "name": "newOwner",
          "type": "address"
        }
      ],
      "name": "transferOwnership",
      "outputs": [],
      "stateMutability": "nonpayable",
      "type": "function"
    }
  ],
  "bytecode": "0x6101406040523480156200001257600080fd5b506040518060400160405280600581526020017f416944414f000000000000000000000000000000000000000000000000000000815250806040518060400160405280600181526020017f31000000000000000000000000000000000000000000000000000000000000008152506040518060400160405280600581526020017f416944414f0000000000000000000000000000000000000000000000000000008152506040518060400160405280600281526020017f414900000000000000000000000000000000000000000000000000000000000081525081600390805190602001906200010492919062000306565b5080600490805190602001906200011d92919062000306565b5050506200014062000134620001fc60201b60201c565b6200020460201b60201c565b60008280519060200120905060008280519060200120905060007f8b73c3c69bb8fe3d512ecc4cf759cc79239f7b179b0ffacaa9a75d522b39400f90508260e081815250508161010081815250504660a08181525050620001a9818484620002ca60201b60201c565b608081815250503073ffffffffffffffffffffffffffffffffffffffff1660c08173ffffffffffffffffffffffffffffffffffffffff1660601b81525050806101208181525050505050505050620004f3565b600033905090565b6000600560009054906101000a900473ffffffffffffffffffffffffffffffffffffffff16905081600560006101000a81548173ffffffffffffffffffffffffffffffffffffffff021916908373ffffffffffffffffffffffffffffffffffffffff1602179055508173ffffffffffffffffffffffffffffffffffffffff168173ffffffffffffffffffffffffffffffffffffffff167f8be0079c531659141344cd1fd0a4f28419497f9722a3daafe3b4186f6b6457e060405160405180910390a35050565b60008383834630604051602001620002e7959493929190620003e9565b6040516020818303038152906040528051906020012090509392505050565b82805462000314906200048e565b90600052602060002090601f01602090048101928262000338576000855562000384565b82601f106200035357805160ff191683800117855562000384565b8280016001018555821562000384579182015b828111156200038357825182559160200191906001019062000366565b5b50905062000393919062000397565b5090565b5b80821115620003b257600081600090555060010162000398565b5090565b620003c18162000446565b82525050565b620003d2816200045a565b82525050565b620003e38162000484565b82525050565b600060a082019050620004006000830188620003c7565b6200040f6020830187620003c7565b6200041e6040830186620003c7565b6200042d6060830185620003d8565b6200043c6080830184620003b6565b9695505050505050565b6000620004538262000464565b9050919050565b6000819050919050565b600073ffffffffffffffffffffffffffffffffffffffff82169050919050565b6000819050919050565b60006002820490506001821680620004a757607f821691505b60208210811415620004be57620004bd620004c4565b5b50919050565b7f4e487b7100000000000000000000000000000000000000000000000000000000600052602260045260246000fd5b60805160a05160c05160601c60e0516101005161012051614913620005466000396000611c1a01526000611c5c01526000611c3b01526000611b7001526000611bc601526000611bef01526149136000f3fe6080604052600436106101d85760003560e01c8063715018a611610102578063a9059cbb11610095578063dd62ed3e11610064578063dd62ed3e1461070f578063e3d670d71461074c578063f1127ed814610789578063f2fde38b146107c6576101d8565b8063a9059cbb14610676578063c3cda520146106b3578063d0e30db0146106dc578063d505accf146106e6576101d8565b806395d89b41116100d157806395d89b41146105a85780639ab24eb0146105d35780639dc29fac14610610578063a457c2d714610639576101d8565b8063715018a6146104ec5780637ecebe00146105035780638da5cb5b146105405780638e539e8c1461056b576101d8565b80633a46b1a81161017a578063587cde1e11610149578063587cde1e1461040c5780635c19a95c146104495780636fcfff451461047257806370a08231146104af576101d8565b80633a46b1a8146103405780633bb66a7b1461037d57806340c10f19146103ba5780635110e7f6146103e3576101d8565b806323b872dd116101b657806323b872dd14610270578063313ce567146102ad5780633644e515146102d85780633950935114610303576101d8565b806306fdde03146101dd578063095ea7b31461020857806318160ddd14610245575b600080fd5b3480156101e957600080fd5b506101f26107ef565b6040516101ff9190613ac0565b60405180910390f35b34801561021457600080fd5b5061022f600480360381019061022a91906132aa565b610881565b60405161023c919061394c565b60405180910390f35b34801561025157600080fd5b5061025a6108a4565b6040516102679190613e7d565b60405180910390f35b34801561027c57600080fd5b50610297600480360381019061029291906131bd565b6108ae565b6040516102a4919061394c565b60405180910390f35b3480156102b957600080fd5b506102c26108dd565b6040516102cf9190613edc565b60405180910390f35b3480156102e457600080fd5b506102ed6108e6565b6040516102fa9190613967565b60405180910390f35b34801561030f57600080fd5b5061032a600480360381019061032591906132aa565b6108f5565b604051610337919061394c565b60405180910390f35b34801561034c57600080fd5b50610367600480360381019061036291906132aa565b61092c565b6040516103749190613e7d565b60405180910390f35b34801561038957600080fd5b506103a4600480360381019061039f9190613158565b6109c0565b6040516103b19190613e7d565b60405180910390f35b3480156103c657600080fd5b506103e160048036038101906103dc91906132aa565b610a09565b005b3480156103ef57600080fd5b5061040a600480360381019061040591906133ab565b610a93565b005b34801561041857600080fd5b50610433600480360381019061042e9190613158565b610b76565b6040516104409190613931565b60405180910390f35b34801561045557600080fd5b50610470600480360381019061046b9190613158565b610bdf565b005b34801561047e57600080fd5b5061049960048036038101906104949190613158565b610bf3565b6040516104a69190613ec1565b60405180910390f35b3480156104bb57600080fd5b506104d660048036038101906104d19190613158565b610c47565b6040516104e39190613e7d565b60405180910390f35b3480156104f857600080fd5b50610501610c8f565b005b34801561050f57600080fd5b5061052a60048036038101906105259190613158565b610d17565b6040516105379190613e7d565b60405180910390f35b34801561054c57600080fd5b50610555610d67565b6040516105629190613931565b60405180910390f35b34801561057757600080fd5b50610592600480360381019061058d91906133ab565b610d91565b60405161059f9190613e7d565b60405180910390f35b3480156105b457600080fd5b506105bd610de7565b6040516105ca9190613ac0565b60405180910390f35b3480156105df57600080fd5b506105fa60048036038101906105f59190613158565b610e79565b6040516106079190613e7d565b60405180910390f35b34801561061c57600080fd5b50610637600480360381019061063291906132aa565b610fb0565b005b34801561064557600080fd5b50610660600480360381019061065b91906132aa565b61103a565b60405161066d919061394c565b60405180910390f35b34801561068257600080fd5b5061069d600480360381019061069891906132aa565b6110b1565b6040516106aa919061394c565b60405180910390f35b3480156106bf57600080fd5b506106da60048036038101906106d591906132e6565b6110d4565b005b6106e46111d8565b005b3480156106f257600080fd5b5061070d6004803603810190610708919061320c565b61127d565b005b34801561071b57600080fd5b5061073660048036038101906107319190613181565b6113bf565b6040516107439190613e7d565b60405180910390f35b34801561075857600080fd5b50610773600480360381019061076e9190613158565b611446565b6040516107809190613e7d565b60405180910390f35b34801561079557600080fd5b506107b060048036038101906107ab919061336f565b61145e565b6040516107bd9190613e62565b60405180910390f35b3480156107d257600080fd5b506107ed60048036038101906107e89190613158565b611594565b005b6060600380546107fe906140ae565b80601f016020809104026020016040519081016040528092919081815260200182805461082a906140ae565b80156108775780601f1061084c57610100808354040283529160200191610877565b820191906000526020600020905b81548152906001019060200180831161085a57829003601f168201915b5050505050905090565b60008061088c61168c565b9050610899818585611694565b600191505092915050565b6000600254905090565b6000806108b961168c565b90506108c685828561185f565b6108d18585856118eb565b60019150509392505050565b60006012905090565b60006108f0611b6c565b905090565b60008061090061168c565b905061092181858561091285896113bf565b61091c9190613f29565b611694565b600191505092915050565b6000438210610970576040517f08c379a000000000000000000000000000000000000000000000000000000000815260040161096790613b22565b60405180910390fd5b6109b8600960008573ffffffffffffffffffffffffffffffffffffffff1673ffffffffffffffffffffffffffffffffffffffff16815260200190815260200160002083611c86565b905092915050565b6000600b60008373ffffffffffffffffffffffffffffffffffffffff1673ffffffffffffffffffffffffffffffffffffffff168152602001908152602001600020549050919050565b610a1161168c565b73ffffffffffffffffffffffffffffffffffffffff16610a2f610d67565b73ffffffffffffffffffffffffffffffffffffffff1614610a85576040517f08c379a0000000000000000000000000000000000000000000000000000000008152600401610a7c90613d02565b60405180910390fd5b610a8f8282611dde565b5050565b60008111610ad6576040517f08c379a0000000000000000000000000000000000000000000000000000000008152600401610acd90613d42565b60405180910390fd5b80600b60003373ffffffffffffffffffffffffffffffffffffffff1673ffffffffffffffffffffffffffffffffffffffff168152602001908152602001600020541015610b58576040517f08c379a0000000000000000000000000000000000000000000000000000000008152600401610b4f90613b42565b60405180910390fd5b610b623382610fb0565b610b73610b6d61168c565b82611dec565b50565b6000600860008373ffffffffffffffffffffffffffffffffffffffff1673ffffffffffffffffffffffffffffffffffffffff16815260200190815260200160002060009054906101000a900473ffffffffffffffffffffffffffffffffffffffff169050919050565b610bf0610bea61168c565b82611ef3565b50565b6000610c40600960008473ffffffffffffffffffffffffffffffffffffffff1673ffffffffffffffffffffffffffffffffffffffff1681526020019081526020016000208054905061200d565b9050919050565b60008060008373ffffffffffffffffffffffffffffffffffffffff1673ffffffffffffffffffffffffffffffffffffffff168152602001908152602001600020549050919050565b610c9761168c565b73ffffffffffffffffffffffffffffffffffffffff16610cb5610d67565b73ffffffffffffffffffffffffffffffffffffffff1614610d0b576040517f08c379a0000000000000000000000000000000000000000000000000000000008152600401610d0290613d02565b60405180910390fd5b610d156000612060565b565b6000610d60600660008473ffffffffffffffffffffffffffffffffffffffff1673ffffffffffffffffffffffffffffffffffffffff168152602001908152602001600020612126565b9050919050565b6000600560009054906101000a900473ffffffffffffffffffffffffffffffffffffffff16905090565b6000438210610dd5576040517f08c379a0000000000000000000000000000000000000000000000000000000008152600401610dcc90613b22565b60405180910390fd5b610de0600a83611c86565b9050919050565b606060048054610df6906140ae565b80601f0160208091040260200160405190810160405280929190818152602001828054610e22906140ae565b8015610e6f5780601f10610e4457610100808354040283529160200191610e6f565b820191906000526020600020905b815481529060010190602001808311610e5257829003601f168201915b5050505050905090565b600080600960008473ffffffffffffffffffffffffffffffffffffffff1673ffffffffffffffffffffffffffffffffffffffff16815260200190815260200160002080549050905060008114610f8757600960008473ffffffffffffffffffffffffffffffffffffffff1673ffffffffffffffffffffffffffffffffffffffff168152602001908152602001600020600182610f159190613fb0565b81548110610f4c577f4e487b7100000000000000000000000000000000000000000000000000000000600052603260045260246000fd5b9060005260206000200160000160049054906101000a90047bffffffffffffffffffffffffffffffffffffffffffffffffffffffff16610f8a565b60005b7bffffffffffffffffffffffffffffffffffffffffffffffffffffffff16915050919050565b610fb861168c565b73ffffffffffffffffffffffffffffffffffffffff16610fd6610d67565b73ffffffffffffffffffffffffffffffffffffffff161461102c576040517f08c379a000000000000000000000000000000000000000000000000000000000815260040161102390613d02565b60405180910390fd5b6110368282612134565b5050565b60008061104561168c565b9050600061105382866113bf565b905083811015611098576040517f08c379a000000000000000000000000000000000000000000000000000000000815260040161108f90613e22565b60405180910390fd5b6110a58286868403611694565b60019250505092915050565b6000806110bc61168c565b90506110c98185856118eb565b600191505092915050565b83421115611117576040517f08c379a000000000000000000000000000000000000000000000000000000000815260040161110e90613b62565b60405180910390fd5b60006111796111717fe48329057bfd03d55e49b547132e39cffd9c1820ad7b9d4c5307691425d15adf89898960405160200161115694939291906139e3565b60405160208183030381529060405280519060200120612142565b85858561215c565b905061118481612187565b86146111c5576040517f08c379a00000000000000000000000000000000000000000000000000000000081526004016111bc90613bc2565b60405180910390fd5b6111cf8188611ef3565b50505050505050565b6000341161121b576040517f08c379a000000000000000000000000000000000000000000000000000000000815260040161121290613e02565b60405180910390fd5b34600b60003373ffffffffffffffffffffffffffffffffffffffff1673ffffffffffffffffffffffffffffffffffffffff168152602001908152602001600020600082825461126a9190613f29565b9250508190555061127b3334610a09565b565b834211156112c0576040517f08c379a00000000000000000000000000000000000000000000000000000000081526004016112b790613c42565b60405180910390fd5b60007f6e71edae12b1b97f4d1f60370fef10105fa2faae0126114a169c64845d6126c98888886112ef8c612187565b8960405160200161130596959493929190613982565b604051602081830303815290604052805190602001209050600061132882612142565b905060006113388287878761215c565b90508973ffffffffffffffffffffffffffffffffffffffff168173ffffffffffffffffffffffffffffffffffffffff16146113a8576040517f08c379a000000000000000000000000000000000000000000000000000000000815260040161139f90613cc2565b60405180910390fd5b6113b38a8a8a611694565b50505050505050505050565b6000600160008473ffffffffffffffffffffffffffffffffffffffff1673ffffffffffffffffffffffffffffffffffffffff16815260200190815260200160002060008373ffffffffffffffffffffffffffffffffffffffff1673ffffffffffffffffffffffffffffffffffffffff16815260200190815260200160002054905092915050565b600b6020528060005260406000206000915090505481565b6114666130b1565b600960008473ffffffffffffffffffffffffffffffffffffffff1673ffffffffffffffffffffffffffffffffffffffff1681526020019081526020016000208263ffffffff16815481106114e3577f4e487b7100000000000000000000000000000000000000000000000000000000600052603260045260246000fd5b906000526020600020016040518060400160405290816000820160009054906101000a900463ffffffff1663ffffffff1663ffffffff1681526020016000820160049054906101000a90047bffffffffffffffffffffffffffffffffffffffffffffffffffffffff167bffffffffffffffffffffffffffffffffffffffffffffffffffffffff167bffffffffffffffffffffffffffffffffffffffffffffffffffffffff1681525050905092915050565b61159c61168c565b73ffffffffffffffffffffffffffffffffffffffff166115ba610d67565b73ffffffffffffffffffffffffffffffffffffffff1614611610576040517f08c379a000000000000000000000000000000000000000000000000000000000815260040161160790613d02565b60405180910390fd5b600073ffffffffffffffffffffffffffffffffffffffff168173ffffffffffffffffffffffffffffffffffffffff161415611680576040517f08c379a000000000000000000000000000000000000000000000000000000000815260040161167790613be2565b60405180910390fd5b61168981612060565b50565b600033905090565b600073ffffffffffffffffffffffffffffffffffffffff168373ffffffffffffffffffffffffffffffffffffffff161415611704576040517f08c379a00000000000000000000000000000000000000000000000000000000081526004016116fb90613de2565b60405180910390fd5b600073ffffffffffffffffffffffffffffffffffffffff168273ffffffffffffffffffffffffffffffffffffffff161415611774576040517f08c379a000000000000000000000000000000000000000000000000000000000815260040161176b90613c02565b60405180910390fd5b80600160008573ffffffffffffffffffffffffffffffffffffffff1673ffffffffffffffffffffffffffffffffffffffff16815260200190815260200160002060008473ffffffffffffffffffffffffffffffffffffffff1673ffffffffffffffffffffffffffffffffffffffff168152602001908152602001600020819055508173ffffffffffffffffffffffffffffffffffffffff168373ffffffffffffffffffffffffffffffffffffffff167f8c5be1e5ebec7d5bd14f71427d1e84f3dd0314c0f7b2291e5b200ac8c7c3b925836040516118529190613e7d565b60405180910390a3505050565b600061186b84846113bf565b90507fffffffffffffffffffffffffffffffffffffffffffffffffffffffffffffffff81146118e557818110156118d7576040517f08c379a00000000000000000000000000000000000000000000000000000000081526004016118ce90613c22565b60405180910390fd5b6118e48484848403611694565b5b50505050565b600073ffffffffffffffffffffffffffffffffffffffff168373ffffffffffffffffffffffffffffffffffffffff16141561195b576040517f08c379a000000000000000000000000000000000000000000000000000000000815260040161195290613da2565b60405180910390fd5b600073ffffffffffffffffffffffffffffffffffffffff168273ffffffffffffffffffffffffffffffffffffffff1614156119cb576040517f08c379a00000000000000000000000000000000000000000000000000000000081526004016119c290613b02565b60405180910390fd5b6119d68383836121e5565b60008060008573ffffffffffffffffffffffffffffffffffffffff1673ffffffffffffffffffffffffffffffffffffffff16815260200190815260200160002054905081811015611a5c576040517f08c379a0000000000000000000000000000000000000000000000000000000008152600401611a5390613c62565b60405180910390fd5b8181036000808673ffffffffffffffffffffffffffffffffffffffff1673ffffffffffffffffffffffffffffffffffffffff16815260200190815260200160002081905550816000808573ffffffffffffffffffffffffffffffffffffffff1673ffffffffffffffffffffffffffffffffffffffff1681526020019081526020016000206000828254611aef9190613f29565b925050819055508273ffffffffffffffffffffffffffffffffffffffff168473ffffffffffffffffffffffffffffffffffffffff167fddf252ad1be2c89b69c2b068fc378daa952ba7f163c4a11628f55a4df523b3ef84604051611b539190613e7d565b60405180910390a3611b668484846121ea565b50505050565b60007f000000000000000000000000000000000000000000000000000000000000000073ffffffffffffffffffffffffffffffffffffffff163073ffffffffffffffffffffffffffffffffffffffff16148015611be857507f000000000000000000000000000000000000000000000000000000000000000046145b15611c15577f00000000000000000000000000000000000000000000000000000000000000009050611c83565b611c807f00000000000000000000000000000000000000000000000000000000000000007f00000000000000000000000000000000000000000000000000000000000000007f00000000000000000000000000000000000000000000000000000000000000006121fa565b90505b90565b6000808380549050905060005b81811015611d2b576000611ca78284612234565b905084868281548110611ce3577f4e487b7100000000000000000000000000000000000000000000000000000000600052603260045260246000fd5b9060005260206000200160000160009054906101000a900463ffffffff1663ffffffff161115611d1557809250611d25565b600181611d229190613f29565b91505b50611c93565b60008214611db35784600183611d419190613fb0565b81548110611d78577f4e487b7100000000000000000000000000000000000000000000000000000000600052603260045260246000fd5b9060005260206000200160000160049054906101000a90047bffffffffffffffffffffffffffffffffffffffffffffffffffffffff16611db6565b60005b7bffffffffffffffffffffffffffffffffffffffffffffffffffffffff169250505092915050565b611de8828261225a565b5050565b80600b60008473ffffffffffffffffffffffffffffffffffffffff1673ffffffffffffffffffffffffffffffffffffffff1681526020019081526020016000206000828254611e3b9190613fb0565b9250508190555060008273ffffffffffffffffffffffffffffffffffffffff1682604051611e689061391c565b60006040518083038185875af1925050503d8060008114611ea5576040519150601f19603f3d011682016040523d82523d6000602084013e611eaa565b606091505b5050905080611eee576040517f08c379a0000000000000000000000000000000000000000000000000000000008152600401611ee590613d62565b60405180910390fd5b505050565b6000611efe83610b76565b90506000611f0b84610c47565b905082600860008673ffffffffffffffffffffffffffffffffffffffff1673ffffffffffffffffffffffffffffffffffffffff16815260200190815260200160002060006101000a81548173ffffffffffffffffffffffffffffffffffffffff021916908373ffffffffffffffffffffffffffffffffffffffff1602179055508273ffffffffffffffffffffffffffffffffffffffff168273ffffffffffffffffffffffffffffffffffffffff168573ffffffffffffffffffffffffffffffffffffffff167f3134e8a2e6d97e929a7e54011ea5485d7d196dd5f0ba4d4ef95803e8e3fc257f60405160405180910390a46120078284836122e7565b50505050565b600063ffffffff8016821115612058576040517f08c379a000000000000000000000000000000000000000000000000000000000815260040161204f90613dc2565b60405180910390fd5b819050919050565b6000600560009054906101000a900473ffffffffffffffffffffffffffffffffffffffff16905081600560006101000a81548173ffffffffffffffffffffffffffffffffffffffff021916908373ffffffffffffffffffffffffffffffffffffffff1602179055508173ffffffffffffffffffffffffffffffffffffffff168173ffffffffffffffffffffffffffffffffffffffff167f8be0079c531659141344cd1fd0a4f28419497f9722a3daafe3b4186f6b6457e060405160405180910390a35050565b600081600001549050919050565b61213e82826124e0565b5050565b600061215561214f611b6c565b836124fe565b9050919050565b600080600061216d87878787612531565b9150915061217a8161263e565b8192505050949350505050565b600080600660008473ffffffffffffffffffffffffffffffffffffffff1673ffffffffffffffffffffffffffffffffffffffff16815260200190815260200160002090506121d481612126565b91506121df8161298f565b50919050565b505050565b6121f58383836129a5565b505050565b60008383834630604051602001612215959493929190613a28565b6040516020818303038152906040528051906020012090509392505050565b600060028284186122459190613f7f565b8284166122529190613f29565b905092915050565b61226482826129d0565b61226c612b30565b7bffffffffffffffffffffffffffffffffffffffffffffffffffffffff166122926108a4565b11156122d3576040517f08c379a00000000000000000000000000000000000000000000000000000000081526004016122ca90613ce2565b60405180910390fd5b6122e1600a612b5483612b6a565b50505050565b8173ffffffffffffffffffffffffffffffffffffffff168373ffffffffffffffffffffffffffffffffffffffff16141580156123235750600081115b156124db57600073ffffffffffffffffffffffffffffffffffffffff168373ffffffffffffffffffffffffffffffffffffffff1614612401576000806123aa600960008773ffffffffffffffffffffffffffffffffffffffff1673ffffffffffffffffffffffffffffffffffffffff168152602001908152602001600020612e5485612b6a565b915091508473ffffffffffffffffffffffffffffffffffffffff167fdec2bacdd2f05b59de34da9b523dff8be42e5e38e818c82fdb0bae774387a72483836040516123f6929190613e98565b60405180910390a250505b600073ffffffffffffffffffffffffffffffffffffffff168273ffffffffffffffffffffffffffffffffffffffff16146124da57600080612483600960008673ffffffffffffffffffffffffffffffffffffffff1673ffffffffffffffffffffffffffffffffffffffff168152602001908152602001600020612b5485612b6a565b915091508373ffffffffffffffffffffffffffffffffffffffff167fdec2bacdd2f05b59de34da9b523dff8be42e5e38e818c82fdb0bae774387a72483836040516124cf929190613e98565b60405180910390a250505b5b505050565b6124ea8282612e6a565b6124f8600a612e5483612b6a565b50505050565b600082826040516020016125139291906138e5565b60405160208183030381529060405280519060200120905092915050565b6000807f7fffffffffffffffffffffffffffffff5d576e7357a4501ddfe92f46681b20a08360001c111561256c576000600391509150612635565b601b8560ff16141580156125845750601c8560ff1614155b15612596576000600491509150612635565b6000600187878787604051600081526020016040526040516125bb9493929190613a7b565b6020604051602081039080840390855afa1580156125dd573d6000803e3d6000fd5b505050602060405103519050600073ffffffffffffffffffffffffffffffffffffffff168173ffffffffffffffffffffffffffffffffffffffff16141561262c57600060019250925050612635565b80600092509250505b94509492505050565b60006004811115612678577f4e487b7100000000000000000000000000000000000000000000000000000000600052602160045260246000fd5b8160048111156126b1577f4e487b7100000000000000000000000000000000000000000000000000000000600052602160045260246000fd5b14156126bc5761298c565b600160048111156126f6577f4e487b7100000000000000000000000000000000000000000000000000000000600052602160045260246000fd5b81600481111561272f577f4e487b7100000000000000000000000000000000000000000000000000000000600052602160045260246000fd5b1415612770576040517f08c379a000000000000000000000000000000000000000000000000000000000815260040161276790613ae2565b60405180910390fd5b600260048111156127aa577f4e487b7100000000000000000000000000000000000000000000000000000000600052602160045260246000fd5b8160048111156127e3577f4e487b7100000000000000000000000000000000000000000000000000000000600052602160045260246000fd5b1415612824576040517f08c379a000000000000000000000000000000000000000000000000000000000815260040161281b90613ba2565b60405180910390fd5b6003600481111561285e577f4e487b7100000000000000000000000000000000000000000000000000000000600052602160045260246000fd5b816004811115612897577f4e487b7100000000000000000000000000000000000000000000000000000000600052602160045260246000fd5b14156128d8576040517f08c379a00000000000000000000000000000000000000000000000000000000081526004016128cf90613c82565b60405180910390fd5b600480811115612911577f4e487b7100000000000000000000000000000000000000000000000000000000600052602160045260246000fd5b81600481111561294a577f4e487b7100000000000000000000000000000000000000000000000000000000600052602160045260246000fd5b141561298b576040517f08c379a000000000000000000000000000000000000000000000000000000000815260040161298290613ca2565b60405180910390fd5b5b50565b6001816000016000828254019250508190555050565b6129b0838383613041565b6129cb6129bc84610b76565b6129c584610b76565b836122e7565b505050565b600073ffffffffffffffffffffffffffffffffffffffff168273ffffffffffffffffffffffffffffffffffffffff161415612a40576040517f08c379a0000000000000000000000000000000000000000000000000000000008152600401612a3790613e42565b60405180910390fd5b612a4c600083836121e5565b8060026000828254612a5e9190613f29565b92505081905550806000808473ffffffffffffffffffffffffffffffffffffffff1673ffffffffffffffffffffffffffffffffffffffff1681526020019081526020016000206000828254612ab39190613f29565b925050819055508173ffffffffffffffffffffffffffffffffffffffff16600073ffffffffffffffffffffffffffffffffffffffff167fddf252ad1be2c89b69c2b068fc378daa952ba7f163c4a11628f55a4df523b3ef83604051612b189190613e7d565b60405180910390a3612b2c600083836121ea565b5050565b60007bffffffffffffffffffffffffffffffffffffffffffffffffffffffff905090565b60008183612b629190613f29565b905092915050565b60008060008580549050905060008114612bfe5785600182612b8c9190613fb0565b81548110612bc3577f4e487b7100000000000000000000000000000000000000000000000000000000600052603260045260246000fd5b9060005260206000200160000160049054906101000a90047bffffffffffffffffffffffffffffffffffffffffffffffffffffffff16612c01565b60005b7bffffffffffffffffffffffffffffffffffffffffffffffffffffffff169250612c2f83858763ffffffff16565b9150600081118015612ca857504386600183612c4b9190613fb0565b81548110612c82577f4e487b7100000000000000000000000000000000000000000000000000000000600052603260045260246000fd5b9060005260206000200160000160009054906101000a900463ffffffff1663ffffffff16145b15612d5b57612cb682613046565b86600183612cc49190613fb0565b81548110612cfb577f4e487b7100000000000000000000000000000000000000000000000000000000600052603260045260246000fd5b9060005260206000200160000160046101000a8154817bffffffffffffffffffffffffffffffffffffffffffffffffffffffff02191690837bffffffffffffffffffffffffffffffffffffffffffffffffffffffff160217905550612e4b565b856040518060400160405280612d704361200d565b63ffffffff168152602001612d8485613046565b7bffffffffffffffffffffffffffffffffffffffffffffffffffffffff168152509080600181540180825580915050600190039060005260206000200160009091909190915060008201518160000160006101000a81548163ffffffff021916908363ffffffff16021790555060208201518160000160046101000a8154817bffffffffffffffffffffffffffffffffffffffffffffffffffffffff02191690837bffffffffffffffffffffffffffffffffffffffffffffffffffffffff16021790555050505b50935093915050565b60008183612e629190613fb0565b905092915050565b600073ffffffffffffffffffffffffffffffffffffffff168273ffffffffffffffffffffffffffffffffffffffff161415612eda576040517f08c379a0000000000000000000000000000000000000000000000000000000008152600401612ed190613d82565b60405180910390fd5b612ee6826000836121e5565b60008060008473ffffffffffffffffffffffffffffffffffffffff1673ffffffffffffffffffffffffffffffffffffffff16815260200190815260200160002054905081811015612f6c576040517f08c379a0000000000000000000000000000000000000000000000000000000008152600401612f6390613b82565b60405180910390fd5b8181036000808573ffffffffffffffffffffffffffffffffffffffff1673ffffffffffffffffffffffffffffffffffffffff168152602001908152602001600020819055508160026000828254612fc39190613fb0565b92505081905550600073ffffffffffffffffffffffffffffffffffffffff168373ffffffffffffffffffffffffffffffffffffffff167fddf252ad1be2c89b69c2b068fc378daa952ba7f163c4a11628f55a4df523b3ef846040516130289190613e7d565b60405180910390a361303c836000846121ea565b505050565b505050565b60007bffffffffffffffffffffffffffffffffffffffffffffffffffffffff80168211156130a9576040517f08c379a00000000000000000000000000000000000000000000000000000000081526004016130a090613d22565b60405180910390fd5b819050919050565b6040518060400160405280600063ffffffff16815260200160007bffffffffffffffffffffffffffffffffffffffffffffffffffffffff1681525090565b6000813590506130fe8161486a565b92915050565b60008135905061311381614881565b92915050565b60008135905061312881614898565b92915050565b60008135905061313d816148af565b92915050565b600081359050613152816148c6565b92915050565b60006020828403121561316a57600080fd5b6000613178848285016130ef565b91505092915050565b6000806040838503121561319457600080fd5b60006131a2858286016130ef565b92505060206131b3858286016130ef565b9150509250929050565b6000806000606084860312156131d257600080fd5b60006131e0868287016130ef565b93505060206131f1868287016130ef565b925050604061320286828701613119565b9150509250925092565b600080600080600080600060e0888a03121561322757600080fd5b60006132358a828b016130ef565b97505060206132468a828b016130ef565b96505060406132578a828b01613119565b95505060606132688a828b01613119565b94505060806132798a828b01613143565b93505060a061328a8a828b01613104565b92505060c061329b8a828b01613104565b91505092959891949750929550565b600080604083850312156132bd57600080fd5b60006132cb858286016130ef565b92505060206132dc85828601613119565b9150509250929050565b60008060008060008060c087890312156132ff57600080fd5b600061330d89828a016130ef565b965050602061331e89828a01613119565b955050604061332f89828a01613119565b945050606061334089828a01613143565b935050608061335189828a01613104565b92505060a061336289828a01613104565b9150509295509295509295565b6000806040838503121561338257600080fd5b6000613390858286016130ef565b92505060206133a18582860161312e565b9150509250929050565b6000602082840312156133bd57600080fd5b60006133cb84828501613119565b91505092915050565b6133dd81613fe4565b82525050565b6133ec81613ff6565b82525050565b6133fb81614002565b82525050565b61341261340d82614002565b6140e0565b82525050565b600061342382613ef7565b61342d8185613f0d565b935061343d81856020860161407b565b61344681614177565b840191505092915050565b600061345e601883613f0d565b915061346982614188565b602082019050919050565b6000613481602383613f0d565b915061348c826141b1565b604082019050919050565b60006134a4601f83613f0d565b91506134af82614200565b602082019050919050565b60006134c7603183613f0d565b91506134d282614229565b604082019050919050565b60006134ea601d83613f0d565b91506134f582614278565b602082019050919050565b600061350d602283613f0d565b9150613518826142a1565b604082019050919050565b6000613530601f83613f0d565b915061353b826142f0565b602082019050919050565b6000613553601983613f0d565b915061355e82614319565b602082019050919050565b6000613576602683613f0d565b915061358182614342565b604082019050919050565b6000613599602283613f0d565b91506135a482614391565b604082019050919050565b60006135bc600283613f1e565b91506135c7826143e0565b600282019050919050565b60006135df601d83613f0d565b91506135ea82614409565b602082019050919050565b6000613602601d83613f0d565b915061360d82614432565b602082019050919050565b6000613625602683613f0d565b91506136308261445b565b604082019050919050565b6000613648602283613f0d565b9150613653826144aa565b604082019050919050565b600061366b602283613f0d565b9150613676826144f9565b604082019050919050565b600061368e601e83613f0d565b915061369982614548565b602082019050919050565b60006136b1603083613f0d565b91506136bc82614571565b604082019050919050565b60006136d4602083613f0d565b91506136df826145c0565b602082019050919050565b60006136f7602783613f0d565b9150613702826145e9565b604082019050919050565b600061371a600d83613f0d565b915061372582614638565b602082019050919050565b600061373d601683613f0d565b915061374882614661565b602082019050919050565b6000613760602183613f0d565b915061376b8261468a565b604082019050919050565b6000613783602583613f0d565b915061378e826146d9565b604082019050919050565b60006137a6600083613f02565b91506137b182614728565b600082019050919050565b60006137c9602683613f0d565b91506137d48261472b565b604082019050919050565b60006137ec602483613f0d565b91506137f78261477a565b604082019050919050565b600061380f601483613f0d565b915061381a826147c9565b602082019050919050565b6000613832602583613f0d565b915061383d826147f2565b604082019050919050565b6000613855601f83613f0d565b915061386082614841565b602082019050919050565b60408201600082015161388160008501826138b8565b506020820151613894602085018261389a565b50505050565b6138a38161402c565b82525050565b6138b281614054565b82525050565b6138c18161405e565b82525050565b6138d08161405e565b82525050565b6138df8161406e565b82525050565b60006138f0826135af565b91506138fc8285613401565b60208201915061390c8284613401565b6020820191508190509392505050565b600061392782613799565b9150819050919050565b600060208201905061394660008301846133d4565b92915050565b600060208201905061396160008301846133e3565b92915050565b600060208201905061397c60008301846133f2565b92915050565b600060c08201905061399760008301896133f2565b6139a460208301886133d4565b6139b160408301876133d4565b6139be60608301866138a9565b6139cb60808301856138a9565b6139d860a08301846138a9565b979650505050505050565b60006080820190506139f860008301876133f2565b613a0560208301866133d4565b613a1260408301856138a9565b613a1f60608301846138a9565b95945050505050565b600060a082019050613a3d60008301886133f2565b613a4a60208301876133f2565b613a5760408301866133f2565b613a6460608301856138a9565b613a7160808301846133d4565b9695505050505050565b6000608082019050613a9060008301876133f2565b613a9d60208301866138d6565b613aaa60408301856133f2565b613ab760608301846133f2565b95945050505050565b60006020820190508181036000830152613ada8184613418565b905092915050565b60006020820190508181036000830152613afb81613451565b9050919050565b60006020820190508181036000830152613b1b81613474565b9050919050565b60006020820190508181036000830152613b3b81613497565b9050919050565b60006020820190508181036000830152613b5b816134ba565b9050919050565b60006020820190508181036000830152613b7b816134dd565b9050919050565b60006020820190508181036000830152613b9b81613500565b9050919050565b60006020820190508181036000830152613bbb81613523565b9050919050565b60006020820190508181036000830152613bdb81613546565b9050919050565b60006020820190508181036000830152613bfb81613569565b9050919050565b60006020820190508181036000830152613c1b8161358c565b9050919050565b60006020820190508181036000830152613c3b816135d2565b9050919050565b60006020820190508181036000830152613c5b816135f5565b9050919050565b60006020820190508181036000830152613c7b81613618565b9050919050565b60006020820190508181036000830152613c9b8161363b565b9050919050565b60006020820190508181036000830152613cbb8161365e565b9050919050565b60006020820190508181036000830152613cdb81613681565b9050919050565b60006020820190508181036000830152613cfb816136a4565b9050919050565b60006020820190508181036000830152613d1b816136c7565b9050919050565b60006020820190508181036000830152613d3b816136ea565b9050919050565b60006020820190508181036000830152613d5b8161370d565b9050919050565b60006020820190508181036000830152613d7b81613730565b9050919050565b60006020820190508181036000830152613d9b81613753565b9050919050565b60006020820190508181036000830152613dbb81613776565b9050919050565b60006020820190508181036000830152613ddb816137bc565b9050919050565b60006020820190508181036000830152613dfb816137df565b9050919050565b60006020820190508181036000830152613e1b81613802565b9050919050565b60006020820190508181036000830152613e3b81613825565b9050919050565b60006020820190508181036000830152613e5b81613848565b9050919050565b6000604082019050613e77600083018461386b565b92915050565b6000602082019050613e9260008301846138a9565b92915050565b6000604082019050613ead60008301856138a9565b613eba60208301846138a9565b9392505050565b6000602082019050613ed660008301846138c7565b92915050565b6000602082019050613ef160008301846138d6565b92915050565b600081519050919050565b600081905092915050565b600082825260208201905092915050565b600081905092915050565b6000613f3482614054565b9150613f3f83614054565b9250827fffffffffffffffffffffffffffffffffffffffffffffffffffffffffffffffff03821115613f7457613f736140ea565b5b828201905092915050565b6000613f8a82614054565b9150613f9583614054565b925082613fa557613fa4614119565b5b828204905092915050565b6000613fbb82614054565b9150613fc683614054565b925082821015613fd957613fd86140ea565b5b828203905092915050565b6000613fef8261400c565b9050919050565b60008115159050919050565b6000819050919050565b600073ffffffffffffffffffffffffffffffffffffffff82169050919050565b60007bffffffffffffffffffffffffffffffffffffffffffffffffffffffff82169050919050565b6000819050919050565b600063ffffffff82169050919050565b600060ff82169050919050565b60005b8381101561409957808201518184015260208101905061407e565b838111156140a8576000848401525b50505050565b600060028204905060018216806140c657607f821691505b602082108114156140da576140d9614148565b5b50919050565b6000819050919050565b7f4e487b7100000000000000000000000000000000000000000000000000000000600052601160045260246000fd5b7f4e487b7100000000000000000000000000000000000000000000000000000000600052601260045260246000fd5b7f4e487b7100000000000000000000000000000000000000000000000000000000600052602260045260246000fd5b6000601f19601f8301169050919050565b7f45434453413a20696e76616c6964207369676e61747572650000000000000000600082015250565b7f45524332303a207472616e7366657220746f20746865207a65726f206164647260008201527f6573730000000000000000000000000000000000000000000000000000000000602082015250565b7f4552433230566f7465733a20626c6f636b206e6f7420796574206d696e656400600082015250565b7f43616e6e6f74206275726e206d6f7265207468616e206571756976616c656e7460008201527f206f6620455448206465706f7369746564000000000000000000000000000000602082015250565b7f4552433230566f7465733a207369676e61747572652065787069726564000000600082015250565b7f45524332303a206275726e20616d6f756e7420657863656564732062616c616e60008201527f6365000000000000000000000000000000000000000000000000000000000000602082015250565b7f45434453413a20696e76616c6964207369676e6174757265206c656e67746800600082015250565b7f4552433230566f7465733a20696e76616c6964206e6f6e636500000000000000600082015250565b7f4f776e61626c653a206e6577206f776e657220697320746865207a65726f206160008201527f6464726573730000000000000000000000000000000000000000000000000000602082015250565b7f45524332303a20617070726f766520746f20746865207a65726f20616464726560008201527f7373000000000000000000000000000000000000000000000000000000000000602082015250565b7f1901000000000000000000000000000000000000000000000000000000000000600082015250565b7f45524332303a20696e73756666696369656e7420616c6c6f77616e6365000000600082015250565b7f45524332305065726d69743a206578706972656420646561646c696e65000000600082015250565b7f45524332303a207472616e7366657220616d6f756e742065786365656473206260008201527f616c616e63650000000000000000000000000000000000000000000000000000602082015250565b7f45434453413a20696e76616c6964207369676e6174757265202773272076616c60008201527f7565000000000000000000000000000000000000000000000000000000000000602082015250565b7f45434453413a20696e76616c6964207369676e6174757265202776272076616c60008201527f7565000000000000000000000000000000000000000000000000000000000000602082015250565b7f45524332305065726d69743a20696e76616c6964207369676e61747572650000600082015250565b7f4552433230566f7465733a20746f74616c20737570706c79207269736b73206f60008201527f766572666c6f77696e6720766f74657300000000000000000000000000000000602082015250565b7f4f776e61626c653a2063616c6c6572206973206e6f7420746865206f776e6572600082015250565b7f53616665436173743a2076616c756520646f65736e27742066697420696e203260008201527f3234206269747300000000000000000000000000000000000000000000000000602082015250565b7f43616e6e6f74206275726e203000000000000000000000000000000000000000600082015250565b7f4661696c656420746f207472616e736665722045544800000000000000000000600082015250565b7f45524332303a206275726e2066726f6d20746865207a65726f2061646472657360008201527f7300000000000000000000000000000000000000000000000000000000000000602082015250565b7f45524332303a207472616e736665722066726f6d20746865207a65726f20616460008201527f6472657373000000000000000000000000000000000000000000000000000000602082015250565b50565b7f53616665436173743a2076616c756520646f65736e27742066697420696e203360008201527f3220626974730000000000000000000000000000000000000000000000000000602082015250565b7f45524332303a20617070726f76652066726f6d20746865207a65726f2061646460008201527f7265737300000000000000000000000000000000000000000000000000000000602082015250565b7f43616e6e6f74206465706f736974203020455448000000000000000000000000600082015250565b7f45524332303a2064656372656173656420616c6c6f77616e63652062656c6f7760008201527f207a65726f000000000000000000000000000000000000000000000000000000602082015250565b7f45524332303a206d696e7420746f20746865207a65726f206164647265737300600082015250565b61487381613fe4565b811461487e57600080fd5b50565b61488a81614002565b811461489557600080fd5b50565b6148a181614054565b81146148ac57600080fd5b50565b6148b88161405e565b81146148c357600080fd5b50565b6148cf8161406e565b81146148da57600080fd5b5056fea2646970667358221220a4a3b988a811093757f2120ba6aae8dd5e43d0bbf37367b73b2254d4ed4d60ba64736f6c63430008040033",
  "linkReferences": {},
  "deployedLinkReferences": {}
}